:020000040000fa
:080000000002040000000000f2
:020000040000fa
:04000800b605000039
:020000040000fa
:04000c00b605000035
:020000040000fa
:04001000b605000031
:020000040000fa
:04001400b60500002d
:020000040000fa
:04001800b605000029
:020000040000fa
:04001c00b605000025
:020000040000fa
:04002000b605000021
:020000040000fa
:04002400b60500001d
:020000040000fa
:04002800b605000019
:020000040000fa
:04002c00b605000015
:020000040000fa
:04003000b605000011
:020000040000fa
:04003400b60500000d
:020000040000fa
:04003800b605000009
:020000040000fa
:04003c00b605000005
:020000040000fa
:04004000b605000001
:020000040000fa
:04004400e8020000ce
:020000040000fa
:040048000e030000a3
:020000040000fa
:04004c00b6050000f5
:020000040000fa
:04005000b6050000f1
:020000040000fa
:04005400b6050000ed
:020000040000fa
:04005800b6050000e9
:020000040000fa
:04005c00b6050000e5
:020000040000fa
:04006000b6050000e1
:020000040000fa
:04006400b6050000dd
:020000040000fa
:04006800b6050000d9
:020000040000fa
:04006c00b6050000d5
:020000040000fa
:04007000b6050000d1
:020000040000fa
:04007400b6050000cd
:020000040000fa
:04007800b6050000c9
:020000040000fa
:04007c00b6050000c5
:020000040000fa
:04008000b6050000c1
:020000040000fa
:04008400b6050000bd
:020000040000fa
:04008800b6050000b9
:020000040000fa
:04008c00b6050000b5
:020000040000fa
:04009000b6050000b1
:020000040000fa
:04009400b6050000ad
:020000040000fa
:04009800b6050000a9
:020000040000fa
:04009c00b6050000a5
:020000040000fa
:0400a000b6050000a1
:020000040000fa
:0400a400b60500009d
:020000040000fa
:0400a800b605000099
:020000040000fa
:0400ac00b605000095
:020000040000fa
:0400b000b605000091
:020000040000fa
:0400b400b60500008d
:020000040000fa
:0400b800b605000089
:020000040000fa
:0400bc00b605000085
:020000040000fa
:0400c000b605000081
:020000040000fa
:0400c400b60500007d
:020000040000fa
:0400c800b605000079
:020000040000fa
:0400cc00b605000075
:020000040000fa
:0400d000b605000071
:020000040000fa
:0400d400b60500006d
:020000040000fa
:0400d800b605000069
:020000040000fa
:0400dc00b605000065
:020000040000fa
:0400e000b605000061
:020000040000fa
:0400e400b60500005d
:020000040000fa
:0400e800b605000059
:020000040000fa
:0400ec00b605000055
:020000040000fa
:0400f000b605000051
:020000040000fa
:0400f400b60500004d
:020000040000fa
:0400f800b605000049
:020000040000fa
:0400fc00b605000045
:020000040000fa
:04010000b605000040
:020000040000fa
:04010400b60500003c
:020000040000fa
:04010800b605000038
:020000040000fa
:04010c00b605000034
:020000040000fa
:04011000b605000030
:020000040000fa
:04011400b60500002c
:020000040000fa
:04011800b605000028
:020000040000fa
:04011c00b605000024
:020000040000fa
:04012000b605000020
:020000040000fa
:04012400b60500001c
:020000040000fa
:04012800b605000018
:020000040000fa
:04012c00b605000014
:020000040000fa
:04013000b605000010
:020000040000fa
:04013400b60500000c
:020000040000fa
:04013800b605000008
:020000040000fa
:04013c00b605000004
:020000040000fa
:04014000b605000000
:020000040000fa
:04014400b6050000fc
:020000040000fa
:04020800b605000037
:020000040000fa
:04020c00b605000033
:020000040000fa
:04021000b60500002f
:020000040000fa
:04021400b60500002b
:020000040000fa
:04021800b605000027
:020000040000fa
:04021c00b605000023
:020000040000fa
:04022000b60500001f
:020000040000fa
:04022400b60500001b
:020000040000fa
:04022800b605000017
:020000040000fa
:04022c00b605000013
:020000040000fa
:04023000b60500000f
:020000040000fa
:04023400b60500000b
:020000040000fa
:04023800b605000007
:020000040000fa
:04023c00b605000003
:020000040000fa
:04024000b6050000ff
:020000040000fa
:04024400e8020000cc
:020000040000fa
:040248000e030000a1
:020000040000fa
:04024c00b6050000f3
:020000040000fa
:04025000b6050000ef
:020000040000fa
:04025400b6050000eb
:020000040000fa
:04025800b6050000e7
:020000040000fa
:04025c00b6050000e3
:020000040000fa
:04026000b6050000df
:020000040000fa
:04026400b6050000db
:020000040000fa
:04026800b6050000d7
:020000040000fa
:04026c00b6050000d3
:020000040000fa
:04027000b6050000cf
:020000040000fa
:04027400b6050000cb
:020000040000fa
:04027800b6050000c7
:020000040000fa
:04027c00b6050000c3
:020000040000fa
:04028000b6050000bf
:020000040000fa
:04028400b6050000bb
:020000040000fa
:04028800b6050000b7
:020000040000fa
:04028c00b6050000b3
:020000040000fa
:04029000b6050000af
:020000040000fa
:04029400b6050000ab
:020000040000fa
:04029800b6050000a7
:020000040000fa
:04029c00b6050000a3
:020000040000fa
:0402a000b60500009f
:020000040000fa
:0402a400b60500009b
:020000040000fa
:0402a800b605000097
:020000040000fa
:0402ac00b605000093
:020000040000fa
:0402b000b60500008f
:020000040000fa
:0402b400b60500008b
:020000040000fa
:0402b800b605000087
:020000040000fa
:0402bc00b605000083
:020000040000fa
:0402c000b60500007f
:020000040000fa
:0402c400b60500007b
:020000040000fa
:0402c800b605000077
:020000040000fa
:0402cc00b605000073
:020000040000fa
:0402d000b60500006f
:020000040000fa
:0402d400b60500006b
:020000040000fa
:0402d800b605000067
:020000040000fa
:0402dc00b605000063
:020000040000fa
:0402e000b60500005f
:020000040000fa
:0402e400b60500005b
:020000040000fa
:0402e800b605000057
:020000040000fa
:0402ec00b605000053
:020000040000fa
:0402f000b60500004f
:020000040000fa
:0402f400b60500004b
:020000040000fa
:0402f800b605000047
:020000040000fa
:0402fc00b605000043
:020000040000fa
:04030000b60500003e
:020000040000fa
:04030400b60500003a
:020000040000fa
:04030800b605000036
:020000040000fa
:04030c00b605000032
:020000040000fa
:04031000b60500002e
:020000040000fa
:04031400b60500002a
:020000040000fa
:04031800b605000026
:020000040000fa
:04031c00b605000022
:020000040000fa
:04032000b60500001e
:020000040000fa
:04032400b60500001a
:020000040000fa
:04032800b605000016
:020000040000fa
:04032c00b605000012
:020000040000fa
:04033000b60500000e
:020000040000fa
:04033400b60500000a
:020000040000fa
:04033800b605000006
:020000040000fa
:04033c00b605000002
:020000040000fa
:04034000b6050000fe
:020000040000fa
:04034400b6050000fa
:020000040000fa
:100400004f8f20000eff27000e0188000000000023
:10041000000020000000e000020032000001200087
:10042000200288000e000700205222000100200058
:10043000810f700001003200220007000000200040
:100440000000e00002003200000002000000000096
:10045000961e0200000000000040da000000fe00ce
:100460004440a900400920000000e00003003200e1
:1004700000002000a00188004440a8000000060001
:10048000f03fb1000180b10006003500ee03090025
:1004900000000000403fb1000180b100fbff3d00c3
:1004a0001000b000203fb0000200350000800900bd
:1004b00000000000000006008a1f78008b1f7800f3
:1004c0000000060091018800800478000000eb0025
:1004d0001a003700e284440032a0b4009905ba0043
:1004e000e284440032a0b4009906ba00e2844400d9
:1004f00032a0b4000006eb00476fde00fd07b2003b
:10050000636ce10003003a00ebff07000000eb0022
:100510000a003700606ce10004003a00005deb0067
:100520008b05e900fdff3e00040037006168e10033
:10053000010032000086eb000b00070019c7ba006b
:100540001905ba000e04e00003003a000a00e000ba
:10055000e0ff3a0000000600fe07b2009e0188009e
:100560008a047800f5ff3700395dba008b05e90091
:100570000c003200295dba008b05e900080032004a
:100580000c00e00003003a00e284440032a0b40012
:10059000f5ff370019ddba008b05e900faff3a00d4
:1005a0008904e800e184440032a0b40000000600a1
:1005b000061d040000000000f8090400000000000f
:1005c000861204000000000000000400000000008b
:1005d0003600f800809fbe00829fbe00849fbe0050
:1005e000869fbe003400f80000002000a0018800b3
:1005f0000000fa00350d070084e0a9000080fa0031
:100600003400f9004f03be004f02be004f01be0090
:100610004f00be003600f900004006003600f8002a
:10062000809fbe00829fbe00849fbe00869fbe004a
:100630003400f80000002000a00188000400fa0047
:10064000304080000000e00022003a000000eb0093
:10065000000f780011003700030d0700c04088002c
:10066000c140800010408000008050008000780071
:10067000d0f92f00808f500007003500c140800066
:10068000104080000080500080007800300620007c
:10069000808f5000060034001e0fe800700220001a
:1006a0009e007800808f5000ebff3400010037007f
:1006b000000000004240800061408000c040800097
:1006c0007b0d07001040880010002000a1110700da
:1006d0002500370030408000e10f500022003a0032
:1006e0000000eb001007980013003700de0c070035
:1006f000d0408800d1408000204080000080500021
:1007000080007800b0fb2f00808f5000070035007c
:10071000d1408000204080000080500080007800a0
:1007200050042000808f5000070034001e0090000d
:100730000000e800100798001e009000fd0f500018
:10074000eaff340001003700000000005240800042
:1007500071408000d04080003a0d070020408800a2
:100760000000eb007b110700304080000000a20079
:100770003040880000822000491107000000e0009e
:100780001500320020c8bf0010e8b700100020009c
:100790003111070000000000008220004011070016
:1007a0000000e000fcff320020c8bf0011e8b700e5
:1007b00010c8bf000004e0000700320011c8bf00ed
:1007c0000004e00004003200f04080000000e80077
:1007d000f04088001c28ef000040eb00180f0700d5
:1007e000104080008000780020408000130020002e
:1007f00052002000350f070080c1b300100f070022
:100800000040eb00ea0e070090c1b3000c0f070098
:1008100080c3b300e60e0700f0408000801f780020
:1008200020c72900801f7800ff020700e4875700d7
:10083000c08420000403070010c8bf000004e000cb
:10084000c100320011c8bf000004e000be00320049
:1008500011c8bf000080fb008081e80010c8bf0005
:100860000080fb000081e80011c8bf000080fb0091
:100870008080e90010c8bf000080fb000080e90014
:1008800014002000b00f070020408000e500400069
:1008900010c8bf000080fb000080e900808f50007e
:1008a0001100360020408000e500500010c8bf0055
:1008b0000080fb000080e900808f50000a003100ba
:1008c00020408000e500400010c8bf000080fb0011
:1008d0000080e800808f50000300310010c0b3009a
:1008e00016e8b7002800370020408000e5004000ef
:1008f00010c8bf000080fb000080e800808f50001f
:100900000a00360020408000e500500010c8bf00fb
:100910000080fb000080e900808f50000300310060
:1009200010c0b30016e8b700170037002040800061
:10093000e500400010c8bf000080fb000080e80018
:10094000808f50001000360020408000e5005000ed
:1009500010c8bf000080fb000080e900808f5000bd
:100960000900360020408000e500500010c8bf009c
:100970000080fb000080e900808f50000200310001
:1009800010c0b30016e8b70010408000e50040003a
:1009900011c8bf000080fb000080e900808f50007c
:1009a0001100360010408000e500500011c8bf0063
:1009b0000080fb000080e900808f50000a003100b9
:1009c00010408000e500400011c8bf000080fb001f
:1009d0000080e800808f50000300310010c0b30099
:1009e00017e8b7002800370010408000e5004000fd
:1009f00011c8bf000080fb000080e800808f50001d
:100a00000a00360010408000e500500011c8bf0009
:100a10000080fb000080e900808f5000030031005f
:100a200010c0b30017e8b70017003700104080006f
:100a3000e500400011c8bf000080fb000080e80016
:100a4000808f50001000360010408000e5005000fc
:100a500011c8bf000080fb000080e900808f5000bb
:100a60000900360010408000e500500011c8bf00aa
:100a70000080fb000080e900808f50000200310000
:100a800010c0b30017e8b70016c8bf00e14f500010
:100a90001b003a0017c8bf00e14f500018003a0091
:100aa000e04080000000e00015003a00a040800017
:100ab0000000e800a040880010002000e04088000e
:100ac00080c1b3005e0e07000040eb00380e070047
:100ad00090c1b3005a0e07000040eb00340e07002f
:100ae000a0408000801f780060c82900801f780027
:100af0004d020700e4875700c0842000520207001f
:100b000080c1b3004e0e07000040eb00280e070026
:100b100090c1b3004a0e07000040eb00240e07000e
:100b2000a0408000801f780060c82900801f7800e6
:100b30003d020700e4875700c084200042020700fe
:100b40001668ef001768ef008500a9000080fa0022
:100b50003400f9004f03be004f02be004f01be003b
:100b60004f00be003600f900004006000040da00e9
:100b70000000fe000001fa00889fbe008a9fbe00b0
:100b80008c1f78000004be0002057800f0032000ee
:100b9000808f51000d003e00090278000a017800a4
:100ba000880078000000eb0005003700b1427800b3
:100bb000325c7800345d7800855c78000000e800e5
:100bc000830f5000f9ff3a001e003700030678003b
:100bd0008c05780000102000800f560001003600c0
:100be000800578000b0178008800780060ef2f0006
:100bf0000f0040004f0207000b0178008a007800c8
:100c0000080078004b0207000b017800890078008b
:100c10000a007800470207000b01780061ef2f00ff
:100c20008f80400009007800420207000b06560042
:100c30000b0444008b8444000b0545000c00e000cd
:100c4000e3ff3a004f0678004f05be004f04be0098
:100c50000080fa00000006000001fa00889fbe0034
:100c60008a9fbe000005be00f0032000800f5100e7
:100c700009003e000000eb00040037009a407800b5
:100c80001b5d7800815d78000000e800820f500055
:100c9000faff3a001800370082047800090478004f
:100ca00000102000808f54000100360000047800fe
:100cb000080178008a00780080ef2f000f004000c4
:100cc0001c020700080178000a00be001902070094
:100cd0000801780081ef2f008f8040000b00780022
:100ce00014020700888454000805450088854500e3
:100cf0000900e000e9ff3a004f05be004f04be00c6
:100d00000080fa0000000600889fbe008a9fbe0097
:100d10008c1f780080047800010478000205be0072
:100d2000040678000800be000c0001000000e0008e
:100d300004003d000b01780088007800090078006d
:100d4000c5ff0700880078000a0078000c00010049
:100d50000000e00004003d000b0178008a007800ec
:100d600008007800bcff07000800be000c0001006e
:100d70000000e00004003d000b01780088007800ce
:100d800009007800b4ff07004f0678004f05be0049
:100d90004f04be0000000600889fbe008a9fbe0070
:100da0008c9fbe008e1f78008002780001057800bd
:100db00082057800030478000406780085805500d9
:100dc00086022000069bb900868f50002300360063
:100dd000110009008380d8008000fd00c308de00f8
:100de0008100e800038bb90086047800098742007f
:100df00009814400028142008e00780005007800dd
:100e0000c1ff07008906ea00090145000d00450001
:100e10000c027800880178008a007800baff070089
:100e20008d864500e0ff2f0000c8b9000080450016
:100e30000c027800880178000b0178008d007800a2
:100e4000b1ff07000c027800880178000d017800de
:100e50008a0078000e007800030037000b0178004c
:100e60008a00780005007800a7ff07004f07780088
:100e70004f06be004f05be004f04be000000060036
:100e8000e4874700889fbe008a9fbe008c9fbe00fb
:100e90008e1f78000004be000205be0084bf9f00c4
:100ea0000906e8000c06460009d8b900000744000e
:100eb0000cd8b900800644000900780015003700fe
:100ec0008a0f5600060032008b8056000d00780015
:100ed0000fb99700020001000000e00002003d0091
:100ee0000c06e9008b8656000b0178008d00780017
:100ef0000e00780058ff07008c00e8008180400059
:100f00000b89b9000c0078000d07780082064400b8
:100f1000010678008a0f5600e9ff360010003700fe
:100f20000006e9000c06d1000be0b9000005440002
:100f30008a0078000e0078000fb9970002000100c7
:100f40000000e000080034000b0178008e007800fb
:100f50000a00780040ff07000c0078000a077800bc
:100f6000808f5400eeff39004f0778004f06be0017
:100f70004f05be004f04be004f00b1000000060048
:100f80000001fa00889fbe008a9fbe008c9fbe00b1
:100f90000005780001067800820578008a06560070
:100fa0008b8646008b047800150037000904780012
:100fb00000102000808f54000100360000047800eb
:100fc00088805500810046000801780040ef2f001e
:100fd0000f00400057010700088156000800450037
:100fe0008a0078005a0107000801780041ef2f00bd
:100ff0008f8040000a0078004e010700888454006a
:101000000900e000e9ff3a004f06be004f05be00b0
:101010004f04be000080fa0000000600ea87470087
:10102000889fbe008a9fbe008c9fbe008e1f7800e6
:101030000005780081067800e2b79f00030478007d
:10104000840578009b0037000d00d1000880b900ae
:101050000006450008e8b90000014500d2b79f002e
:10106000880446000800ea00f0b79f00820078007c
:10107000008140000b027800880178008c00780025
:101080000a00780044ff0700010037000d067800d1
:101090008c0f5500090031007fb197008206460091
:1010a0008c0078000d0078000b0001000000e000cb
:1010b000f6ff320001003700888444005fb09700db
:1010c000808f5400030039000c07780089067800ef
:1010d000110037008c007800090078000b00010037
:1010e0000000e000f4ff3200f7ff37000c00be0004
:1010f0000b0001000000e000060035001c003a0073
:10110000080178008d00780009007800d2fe070001
:101110008884440088864600dfb09700818f56009f
:1011200013003100f1ff37007fb1970082014700c3
:101130008c0078000300780083bf9f000b00010043
:101140008fb997000000e000080035000a003a005f
:101150007fb0970000064600080178008300780001
:101160000c007800bcfe07008fb9970003077800d9
:101170008e0f5500ecff39008a0f570014003a001b
:10118000dfb09700818f56002b0032008d8f540006
:1011900005003a00080178008c007800090078000a
:1011a000adfe0700050037008801780009017800ce
:1011b0008c0078000d0078006efe070088864600df
:1011c00008064600888444000a077800d2ff3700ea
:1011d0007fb19700020747005fb09700808f5600ed
:1011e00010003a0082844400020646008c0f57002b
:1011f00006003a0008017800890078000e007800a7
:1012000095fe07000e067800c3ff370088017800be
:101210000c017800890078000e00780055fe070068
:10122000bdff3700080178008e0078000d007800bf
:1012300089fe0700b7ff3700efb097000100d1002b
:1012400001017800c210de0080804000e1b79f00fd
:101250000a065600110009000886d800000678002a
:1012600089865600110009008886d800800678001b
:101270008d0f560008003e000b02780088017800b0
:101280006fb197008c0078000a00780063ff0700b8
:1012900009057800070037000b0278008801780004
:1012a0006fb197008d007800090078005bff0700a0
:1012b0008c067800efb097000100e00004003200d7
:1012c00000022000808f56005fff3e001e003700a6
:1012d00000022000808f56001b0036008d04d100d4
:1012e0008904e9000b027800880178000d0178007c
:1012f000890078000a007800e1fe07000900e0009c
:10130000f7ff3a0008e8b9008004450088845400db
:1013100008017800890078000a0078004efe070076
:101320008d06e9000b027800880178000d01780035
:101330008000eb000a007800d1fe0700e18f560024
:10134000f2ff3e001f003700e18f56001d003600ff
:101350008a04780019003700888444008a007800e5
:10136000090078000b0001000000e00004003d00cf
:1013700008017800890078000a0078000e00370024
:1013800009067800010037000e06780008075600ad
:101390008e007800090078000b0001000000e000da
:1013a000f9ff3500890f560004003200080178006b
:1013b000890078000c007800f1fe07008d06e90036
:1013c000e5ff3a004f0778004f06be004f05be000c
:1013d0004f04be00af00b100000006000302780019
:1013e0008201780001017800820078000bff37004d
:1013f000889fbe0000047800010078008204780015
:1014000088017800090178001100200062000700bf
:10141000890f5000010032000004eb000800780042
:101420004f04be00000006000000fa00e8815700eb
:101430004fb99700c1842000809f2000aa000700b8
:101440000080fa0000000600889fbe008a1f780016
:10145000000478000800e0000d003a00a889200090
:10146000700544008004eb00580078000000e000a4
:1014700004003200f4ff07000000e00001003d001e
:101480008084eb008a0f5400f7ff3a0025003700f4
:1014900000002200180060008004eb0021003200f0
:1014a000a80490000f003700090151003840900057
:1014b0000000fb0089007800980507000000e000ac
:1014c00007003c0028009000400498006004980049
:1014d000500c98001890a0008084eb001100370099
:1014e0008084440048019000828f5400eeff390050
:1014f00028009000400498009800780002c0200066
:101500000281600001003a003800900001e8a30069
:10151000020032006004980001003700500c98006f
:101520008004eb00090078004f0578004f04be00ee
:10153000000006008001780002003700b1597800f1
:101540000201e9000200e000fcff3a000000060092
:1015500000027800808f50000c0031008281400032
:10156000830f500009003100820040000200370064
:10157000c36078000201e9000200e000fcff3a00cd
:1015800000000600315a78000201e9000200e00084
:10159000fcff3a0000000600889fbe008a9fbe0044
:1015a0008c9fbe008e1f7800000678000104780032
:1015b00002007800830478000881b90002077800ef
:1015c0000200e000420032000800e000410032006a
:1015d00082057800c900900069009000808f50005b
:1015e0000400390009007800f10007000000e00065
:1015f0002900350000402000190060000a00320078
:101600000b017800a10020000c0078002f010700da
:10161000800678000d00e00006003200610516002b
:101620000a854600040037000b0578008006eb00b1
:10163000010037000b05780049009000e900900098
:10164000808050008a8f5000020031000105780030
:101650008006eb000a0178008c007800b5ff0700d7
:101660008a855500490090000a004000c004980097
:101670000d00e000040032000900780072ff07004e
:101680000000e00004003a000b00e000020032001d
:101690000a064600cfff37000080200019006000d6
:1016a000020032000900780067ff070000c0200038
:1016b000190060000200320049009000e004980028
:1016c0008b055700110009008885d80001003700fc
:1016d0000000eb004f0778004f06be004f05be002c
:1016e0004f04be00000006006200fa00889fbe00a2
:1016f0008a1f7800000578008104780002047800d1
:101700008300780080f92f000f004000f9000700e7
:101710009a979f00a9979f000000eb00b09f9f0041
:101720001885fb008a04fb000a05ea004f55de001d
:1017300050022000808f54000d003200e10f550050
:101740000b003a000a017800880078002f9097007b
:101750009f91970003000100a0979f000000e00008
:101760008e0032003f9897000000e800b09f9f0075
:101770000a04440050022000808f5400040032000c
:101780000900e000e6ff3a003f9897008400370028
:101790000000eb00909f9f00809f9f00f0979f00ac
:1017a000e0979f00d0979f00c0979f0007003700e9
:1017b000218e20000100500000004000618d2000bb
:1017c00061007800df98970001007000d09f9f00b3
:1017d0008804780009047800384578008a00fb0006
:1017e000208e2000c50007000000e000f0ff3a0056
:1017f000a1c2b300814f55000e003a00cf88970078
:101800000180e900c08f9f0010007800c09f9f00fa
:101810000000e00005003d000000ea00c09f9f00be
:101820005f9897000020a000d09f9f000904e80067
:101830000f003700c09f9f000000eb00050037003d
:10184000f2ff2700820f5000020032006a01b90047
:10185000028040000904780088047800b900fb0089
:101860000103b100e98f5000f5ff3600c09f9f00d3
:10187000e0c2b300984f1000020032000080eb007d
:1018800019003700a0c2b300d84f100007003a007b
:10189000cf8897000180e900c08f9f00100078007a
:1018a000a09f9f000804e800100037000000eb0034
:1018b000a09f9f008800780005003700f3ff2700f5
:1018c000830f5000020032006a02b9000400410098
:1018d00001047800880078003101fb000203b100a8
:1018e000e90f5100f5ff3600a09f9f009844780053
:1018f0008900fb00e08c2000800007000000e00071
:10190000020032000804e800010037008044eb00c8
:10191000c97f9f0080c6b30080cf540004003a0006
:1019200098cf14000a003a006640500006003700c5
:10193000c0c6b30080cf540005003a0098cf140011
:1019400003003a0065404000c07f9f000804e800a3
:101950001801fb00e3fb2f008f81410081f92f006c
:101960008f804000a0f92f000f0040006f0007009b
:101970000000e00009003a00e1fb2f008f804000ea
:10198000a0f92f000f0040007a0107000000e000de
:10199000020035000804e80061ff37000080eb001a
:1019a0004f0578004f04be000080fa0000000600da
:1019b000889fbe008a1f780000047800c80090004d
:1019c000680190000000eb00828f50003c0039005d
:1019d000180078002200290002016000e20f510087
:1019e00007003200012024000000e00001003d005b
:1019f00001202000008c70000080eb0030003700d8
:101a00000200260002006000820f500009003a0028
:101a100038009000808f50000600390008007800e0
:101a200089fe0700800078000080eb000100e000e4
:101a300023003a001805780000c02000000065006f
:101a400018003a00a804900060022000080040003e
:101a5000808f540013003a00002020003402070059
:101a6000200498000000e00005003a0029049800d6
:101a7000490498008904e8003904980008003700f8
:101a80000a60a0000a0c78004004980001202000a1
:101a90008080400031049800400c9800500c980061
:101aa0004f02070028009000500498003800900072
:101ab0006004980000002600180c70000000eb0085
:101ac0004f0578004f04be000000060003003700f9
:101ad000b0cf1000050032000201e900800178005b
:101ae0000200e000faff3a00000005000300780061
:101af0000000060001087800000006000200370020
:101b00000304e000060032000001780002007800c3
:101b1000b041780081cf5100f9ff3a000100370051
:101b20000001eb000200780000000600889fbe0064
:101b30008a9fbe00e4c6b300844f5100be0032004d
:101b400010003c006b425200844f510018003200dc
:101b500005003c0054c2b300844f5100f60032002f
:101b600084c5b3000f00370044c6b300844f510052
:101b70001400320065424200844f5100f1003a00e7
:101b80001000370004c7b300844f5100dd0032005d
:101b90005600350065424200844f51005300320028
:101ba00063424200844f5100e6003a004f00370084
:101bb0001181e90082087800f0009000124178005d
:101bc000de00370020629000c5c6b300854f52008a
:101bd00007003a009102780064825200840878007d
:101be0001402be004fabde008603780014003700fd
:101bf00015c7b300854f520003003a001104780066
:101c00006802540005003700a5c6b300854f520096
:101c100006003a0091047800688254008408780035
:101c20005403be004402be00050037001182e900e3
:101c30008408780014027800cfa2de00612bb9007e
:101c40000498be000690be00a060900088c6b30055
:101c500088cf50000d00320028c6b30088cf500056
:101c600004003a000402fb00cfa2de00612bb900a1
:101c70000800370048c7b30088cf50000300320087
:101c80006644440088cf500004003a00cfa2de0032
:101c9000612bb9000498be000690be003002be0061
:101ca0002003be00f0009000e00f5200e08f5a00c9
:101cb000e00f5b00e08f5b0002003d00d4c2b30088
:101cc00008003700001290000418a3000200320040
:101cd000b4c2b300030037000408a300510032006f
:101ce00004c2b30084f178004c00370020629000f9
:101cf000c5c6b300854f520008003a0011057800b0
:101d000064025500840878001404be006055b800d1
:101d10000802be000a03be001400370015c7b30056
:101d2000854f520003003a00910478006882540005
:101d300005003700a5c6b300854f520006003a00e3
:101d40001105780068025500840878005403be002d
:101d50004402be00050037001182e90084087800c3
:101d6000140278008002eb006033b8000498be00d3
:101d70000690be00a060900088c6b30088cf5000d7
:101d80000d00320028c6b30088cf500004003a008e
:101d90000482fb008002eb006033b80008003700cb
:101da00048c7b30088cf50000300320066444400a7
:101db00088cf500004003a008002eb006033b80086
:101dc0000498be000690be00801090000138a30069
:101dd000140032003002be002003be00e00f5200ab
:101de000e08f5a00e00f5b00e08f5b000d003200d7
:101df00081c7b300814f51000300320081c5b30099
:101e0000814f510007003a00f000900004c3b30076
:101e100084f178008100e80082f178008100e80018
:101e200071009800f00090008181410063009800eb
:101e3000824078003e003700a0619000c4c6b30025
:101e40001181e90084cf5100220032000a003c00d9
:101e50006442520084cf51002500320004c2e800e1
:101e600084cf5100130032006842520084cf5100e9
:101e70001e003a000a00370044c7b30084cf510067
:101e80001b0032006642420084cf5100180032002d
:101e90006942520084cf510014003a000500370017
:101ea00082087800920078004058900080487800be
:101eb0002c0037008208780092007800600a9000b9
:101ec000cfa2de00612bb9008498be008690be00d0
:101ed00024003700820878009200780060099000a2
:101ee000cf91de008288be001e0037001181e9001c
:101ef00082087800920078006008900080087800de
:101f0000180037001181e900820878001202780079
:101f1000cfa2de00612bb9000498be000690be007f
:101f2000f0009000818141006300980081c7b300f8
:101f3000810107000b003700f000900082f178006b
:101f400006003700f0009000818141000204e000ab
:101f500001003a0052c2b300824978008100e800d3
:101f6000710098000000eb004f05be004f04be005a
:101f7000000006000400fa00889fbe008a9fbe0091
:101f80008c1f78000004780001067800f80d90009e
:101f900078009000808555000808900080855500e5
:101fa000180890008085550028089000808555000d
:101fb00038089000808555004808900080855500bd
:101fc0000002220090bf9f0000032300a0bf9f00db
:101fd000081090000028a30015003a000b00e00054
:101fe000130034000b0578008a047800e20f5500d6
:101ff0000100360029002000c80190000901780086
:10200000ee80570058009000030001005004980033
:102010000000e0008c0032006808900009004000d9
:10202000600c9800090555004240a900eeff3c00f5
:10203000780190000200e0000c003400c80190001c
:102040008c007800580090000300010050049800b4
:102050008080eb000000e0007c003200e808900087
:102060007800900000804000600c9800880c900080
:102070000900e0001100340009057800e28f5400e7
:10208000010036002a002000c80190000a017800f3
:10209000ec805700580090000300010050049800a5
:1020a0000000e00068003200680890000a0040006c
:1020b000600c98008a845400edff370018099000e6
:1020c0000200e0000c003400c8019000e80090001d
:1020d0005800900003000100500498008080eb003d
:1020e0000000e00059003200e80890001808900055
:1020f00000804000600c9800a80c90000900e000ef
:102100001100340009057800e28f54000100360008
:102110002a002000c80190000a017800ec805700d6
:102120005800900003000100500498000000e000f7
:1021300045003200680890000a004000600c9800da
:102140008a845400edff3700380990000200e00057
:102150000e003400e80090001808900080804000d5
:10216000c80190005800900003000100500498003e
:102170008080eb000000e00034003200e8089000ae
:102180003808900000804000600c9800c80c900057
:102190000900e0001100340009057800e28f5400c6
:1021a000010036002a002000c80190000a017800d2
:1021b000ec80570058009000030001005004980084
:1021c0000000e00020003200680890000a00400093
:1021d000600c98008a845400edff370008109000ce
:1021e0008000eb000028a300180032000b00e00084
:1021f000160034008b04780009057800e28f540043
:10220000010036002a002000c80190000a01780071
:10221000ee80570058009000030001005004980021
:102220000000e00008003200680890000a0040004a
:10223000600c98008a8454004240a900eeff3c00e4
:102240008000eb00010037008080eb000100780087
:102250004f0678004f05be004f04be000080fa0014
:1022600000000600889fbe000004780041478000ff
:102270000100e00002003200010078000d0037008c
:1022800051478000a08e200004003700910f5400b9
:10229000250036000180e800910090000100e00078
:1022a000faff3a0010003700920f54001e0036006b
:1022b0000280e800100178000200e000faff3a0016
:1022c0001101780051478000a08e200004003700e3
:1022d000910f5400140036000180e8009100900036
:1022e000828f5000faff3a0079478000888f5400af
:1022f000010031008804780009007800bd01070062
:102300000000e00004003a00888f5400050032000d
:102310008904d100f5ff370009187800bf010700d4
:10232000d2ff37000000eb004f04be0000000600a3
:10233000881f7800630440000800a1008000eb00c3
:10234000800f540021003600e30f540001003e00ce
:102350004800200008007800c2ff07008000eb0062
:102360000000e00019003200900078009101780030
:1023700064815100880f5100030031001101900069
:102380000208780007003700088140000208780042
:1023900091019000130198001001780011091400b8
:1023a00088087800100178000000eb000200e000cf
:1023b00004003200920190000300e00001003200ae
:1023c0000280e800404788008180e8000100780032
:1023d0004f0478000000060060282100c10137008a
:1023e000881f7800088f20001804e00003003a00de
:1023f000f9ff070020c0b300004c78004f047800bc
:1024000000000600889fbe000004780008007800e5
:102410000dfc070080047800000420001800600014
:1024200002003200280090007c0107000000eb0051
:1024300020049800384090000004e00005003500ba
:102440000000fb00f90107000000e000010032007d
:102450008084eb00181090000000e00008003200bb
:10246000fd0107000000e000010032008084eb0065
:1024700018109000690107000000eb00101498008c
:1024800000082000180060000f003200a189200021
:102490000000eb00d10f140005003a0000004000de
:1024a000c1892000008040000008eb0003003700d5
:1024b0000000e800e80f5000f6ff3a00080078003e
:1024c000560107000e003700000c780000c0eb003a
:1024d000304498006002200008004000200498006a
:1024e0004004980050049800400c98006004980044
:1024f000500c98007004980076004400000c98007e
:10250000090078004f04be0000000600889fbe004e
:10251000c88a2000f0045400480078000000e00061
:1025200001003200b7ff0700890f5400faff3a009c
:102530004f04be0000000600fc874700889fbe00d5
:102540008a9fbe008c9fbe008e1f78000006780018
:1025500080c5b30080cf50000a00320077404000b1
:1025600080cf50000a0032006940400080cf500008
:102570000b003200d08b200080bf9f00ae002000f7
:102580000a003700c28a200082bf9f000600370081
:10259000d38b200083bf9f008e00200003003700f4
:1025a000d48b200084bf9f000e0120003c02be009f
:1025b0002c03be000605be000404be0040c6b300e6
:1025c00080cf5000030032006540400080cf5000b3
:1025d0000b003a00e00f5200e08f5a00e00f5b0062
:1025e000e08f5b0006003d006000b8006011b8009d
:1025f0000404500085845800060559008785590059
:10260000e80f57000400320040002000f00f570090
:1026100038003a000100370030002000e00f54007d
:10262000e08f5c00e00f5d00e08f5d0004003a0089
:10263000dc0890008d0120000100e000060032005f
:102640008e00e900888060008fba9700e5c07800ae
:10265000f1ef9f007d012000800078008100e900fb
:10266000050033008b05d1000a85d3008984d3008f
:102670000884d300f9ff3700089ebe000a96be000a
:10268000120037008d06e9008e00e90084806000aa
:102690000fb99700e2c1780082fd2f000f014100c1
:1026a00003f17e00800078008100e900050033001e
:1026b0008783d1000683d3008582d3000482d300b0
:1026c000f9ff3700049ebe000696be003c02be0025
:1026d0002c03be00e00f5200e08f5a00e00f5b00b9
:1026e000e08f5b008b0034000d00e000e5ff3c0054
:1026f000880037002c60900081c6b300814f5000e5
:102700000b00320006003c000004e000080032002c
:10271000e6c05000814f50004e003a0004003700e0
:10272000c1c6b300814f50004a003a002100370073
:102730000800e00004003a005c0890008d012000d1
:102740000000e00006003200110009000e84d800ed
:102750000fb99700e2c07800f1ef9f007d012000e3
:10276000110009000e84d8000a003700110009008a
:102770000e04d8008d06e9000e81b9000204540051
:102780008fb8970061417c0081fd2f008f80400051
:1027900082f07e00000478000800e00002003200b1
:1027a0000d00e000f1ff3c00cfc4de00614db90038
:1027b00025003700e00f5400e08f5c0004003a0071
:1027c0005c0890008d0120000000e000070032004e
:1027d0006171b9000800be002c0407008fb9970092
:1027e000e3417800f3ef9f007d0120006171b900a3
:1027f0000800be00930107000b0037006171b900ab
:102800000800be00240407008d06e90000f1b900ad
:10281000020454000fba9700e4427c0084fd2f00ac
:102820000f02420005f27e000004be00e00f5000df
:10283000e08f5800020032000d00e000efff3c0086
:102840004fcdde008a057800089ebe000a96be00c5
:1028500030003700e00f5400e08f5c00e00f5d00b7
:10286000e08f5d0004003a005c0890008d012000bc
:102870000000e000090032006172b900612bb9006c
:102880000800be000a01be00d70207000fba970079
:1028900064427800f4ef9f007d0120006172b9006e
:1028a000612bb9000800be000a01be00c702070084
:1028b0000d0037006172b900612bb9000800be003d
:1028c0000a01be00cc0207008d06e90000f2b90043
:1028d000040454008fba970065427c0085fd2f00e8
:1028e0008f82420084f27e00009ebe000296be00ef
:1028f0003c04be002c05be00e00f5400e08f5c00dd
:10290000e00f5d00e08f5d00020034000d00e0008c
:10291000e8ff3c00e80f570010003a000c10900050
:102920000038a3000d003200f78f560006003e006d
:1029300085fd2f008f824200e5c07e0000c3b300fa
:1029400080cf5000050032008d06e90002c3b300bd
:1029500081fd2f008f80400082f07e00788116007c
:10296000120e98006c00900083fd2f008f814100b3
:102970008d804100effa07001c089000dc089000f1
:10298000810f500006003d0000805000000e9800ae
:102990000c1090000040a100001698000f003700b6
:1029a0000100e0000d003d008c109000f4806000fc
:1029b000f08f500009003a007c099000fc00900064
:1029c000810051000c09900082805000008050006e
:1029d0004240a90001003400000e98004f07780023
:1029e0004f06be004f05be004f04be00cf01b10030
:1029f00000000600800078000000eb000100e0000d
:102a000005003400010078009c000700e10f400041
:102a100001003a000000eb00000006000000e000aa
:102a20002f003200c0017800e38f51002c003600e7
:102a30000308a3002a003a00514780000100e0008b
:102a400002003200810f5000040031001100980094
:102a5000504788001600370082007800110190006e
:102a60000200e00002003200800f5100faff39003e
:102a70001102780084824000850f50001800390050
:102a8000808f520003003a00830842000100780062
:102a9000070037000200e00003003200830140001d
:102aa000830f51000e00390012009800900098002a
:102ab000900090000100e000090032001001400089
:102ac000828f500006003a00828e20000009eb0041
:102ad0001001780011084100910090001100980049
:102ae00000000600010020000100e00008003200a4
:102af000010080000100e000050032008100e900d3
:102b000001008800818040000200800000b1780050
:102b10000000060000c0da00000006000a00fa000b
:102b2000e20f500034003e0060478000e10f50008b
:102b300003003200e20f500011003a000c00370091
:102b4000032220000300e00001003a000040da0008
:102b50002002e200020035002822ef0021e2a80056
:102b60002342ab000d003a002342a8000b003700bf
:102b7000032320000300e00001003a000040da00d7
:102b80003002e200020035003822ef0031e2a800f6
:102b90003342ab0001003a003342a80082017800c2
:102ba0000b0037003102fb00e10f500004003a0037
:102bb0002322ab00feff3a002411880003003700f7
:102bc0003322ab00feff3a00a41188008301e90024
:102bd0000300e000f3ff3a00e10f500003003a0069
:102be0002302ab00feff32000b0037003302ab00c4
:102bf000feff32000800370033002000b3bf9f0003
:102c0000c0bf9f00d1bf9f00e2bf9f006a805700f6
:102c1000c0ff07006fb99700020078000080fa003b
:102c20000000060000c0da00000006000a00fa00fa
:102c300011002000b1bf9f00c0bf9f006a805700f5
:102c4000f8ff07004fb897000080fa000000060068
:102c500000c0da00000006000a00fa00510020005f
:102c6000b1bf9f00c0bf9f006a805700f8ff0700f8
:102c70005fb897000080fa0000000600889fbe0041
:102c800080047800904780000000e00004003a00d3
:102c90000e0007000084eb000000e0000800350093
:102ca000984780000900e000050032000900440058
:102cb000060007000000e00001003d000084eb007a
:102cc000080078004f04be00000006008000780075
:102cd0000100e00003003a00000020009047880057
:102ce000000005000080eb0002002000828f5000f1
:102cf00002003e00914788000000eb000000060043
:102d00006011b8003d023700889fbe008a9fbe0058
:102d10008c1f7800680207006f02330003866c0086
:102d20006450e100240032006420e10027003200fa
:102d30006150e100220032006120e10021003200f8
:102d40008b854200eb07b1000134b800003ab800af
:102d50000804420089844a00013ab8000030b800f3
:102d60008880400009014a00040033000000400050
:102d700081804800020149008b05e900c909dd0096
:102d8000830170000100320013002000c814de002f
:102d90004814dd004709de001200b200c808de005a
:102da000088470005c02070001f0a1000cf0a7008d
:102db00001f0a000510237006120e100530232000f
:102dc0000801be000200be00f7ff37006150e100bd
:102dd000fcff3a004d0237000001be0074020700fc
:102de0000470a70003f0a10003f8a30013003a0049
:102df0006509b10010003200090035006928e100c2
:102e0000020035000100280000000500000040001d
:102e1000818048008502e900fcff3a0000000600be
:102e2000f88f4200050035008100d1000080d300fa
:102e30008502e800fcff3a00000006008000eb007d
:102e4000000005006022b800060220000000d0004b
:102e50008180d2000482d2008582d2000000a000ce
:102e60000202520083825a00030031000202420033
:102e700083824a000000a1000603e900f3ff3a0044
:102e800000000600889fbe008a9fbe008c1f78004d
:102e9000090207001002330003866c006450e10051
:102ea0002e0032006420e100330032006150e10066
:102eb0002f0032006120e10031003200858555008d
:102ec000eb07b000090020000804200005003700cf
:102ed0000804440089844c000a00310006034300c2
:102ee00087834b000001530081815b00f8ff3300b2
:102ef0000203be000800a0000804440089844c00be
:102f0000f6ff3900c639dd0083017300010032008d
:102f1000130020008904d1000884d3000998a3007d
:102f2000050032000800a7000300a0008904d100ba
:102f30000884d3008b05e8008904d1000884d300fd
:102f40000001eb000281d200f301070001f0a100b3
:102f50000cf0a70001f0a000e80137006420e100b8
:102f6000ea0132000801be000200be00f7ff370090
:102f70006120e100e50132006000b800f3ff370096
:102f80000000200001f82700f0ff370003f0a20046
:102f9000889fbe008a9fbe008c1f7800c601070074
:102fa000cd0133006450e1004f0032006420e100a5
:102fb0005200320003826c0007003b000905d0007c
:102fc0000306d000820f54000c065d000200390099
:102fd00002003200890178000306780085825500de
:102fe00004003d000003fd008103fd008502ea00ae
:102ff0008b854200840f720002003b0060001000cd
:10300000e08018006011b8000005eb007a28e100ac
:103010000a00390006007800c75ddd00f707b2003e
:10302000878075002d003700828171000a017800c9
:10303000610560008180d1000080d3008502e90035
:10304000f9ff3b00060440008784480002003b0073
:1030500060041400e0841c000988a300070032000b
:103060008a81710082817100610164008904d1004c
:103070000884d3008b05e800170037000978a30007
:1030800013003a000b00e000130034008b05e90048
:103090000804440089844c000a4474000978a300a1
:1030a0000d003a000b00e000070034008b05e9003a
:1030b0000804440089844c0001003a000b00200001
:1030c0000978a300f7ff32000001eb00020037008f
:1030d000828171000a0178008f0107000cf0a700bf
:1030e00001f0a000850137006420e10002003a00f1
:1030f000838f6c00850133000801be000200be0012
:103100007e0137000001be00a90107000470a7007e
:1031100003f0a1006509b100160032000d00350072
:103120006828e10006003500f0ff2f00f1ff2700be
:103130000300e00013003b00010028000000050030
:1031400000004000818048008502e900fcff3a0051
:1031500008003700f88f420002003c008000eb00be
:10316000000005008100d1000080d3008502e80046
:10317000fcff3a000300e00002003b00600010008a
:10318000e080180000000600889fbe008a9fbe00f5
:103190008c1f78000006eb00e00f5000e08f580015
:1031a000e00f5900e08f590007003d006044b8006f
:1031b0006055b8000000540081805c0002015d0091
:1031c00083815d001c002000e00f5200e08f5a0058
:1031d000e00f5b00e08f5b0007003d006044b8003b
:1031e0006055b8000402540085825c0006035d004f
:1031f00087835d000c00a200820107000c00e00044
:10320000060032006022b8006033b80000005200af
:1032100081805a0002015b0083815b004f067800c9
:103220004f05be004f04be0000000600889fbe0090
:103230008a9fbe0030044200b0844a0030054b0033
:1032400090854b006000b1000898be000a90be0057
:10325000c100070002003100680040001008e800cb
:103260004f05be004f04be0000000600889fbe0050
:103270008a9fbe003004be002005be000418540022
:1032800005985c0006185d0007985d00110020009d
:10329000b1000700010039008000eb001088100029
:1032a0004f05be004f04be00000006001200fa00e9
:1032b000889fbe008a9fbe008c9fbe00e0b79f0023
:1032c000f1b79f0082bf9f0093bf9f000605be001d
:1032d0000404be000000eb00d0b79f00c0b79f0001
:1032e000b0b79f00a0b79f0090b79f000006eb000b
:1032f0005fb19700cfb09700820141003fb09700c7
:103300000200e00004003d00980007007e805700a6
:10331000c6ff070003003700940007007e805700b7
:10332000d2ff0700dfb697000d00e0000c0035006b
:103330006fb29700ffb297000fbb97009fbb97003b
:1033400010002000010020006011b800000272008f
:1033500081827200020373008383730058000700a8
:103360000c06e80001042000810f5600e0ff3a003f
:103370000d00e00004003d000802be000a03be008c
:103380007e805700a9ff07005fa897000000e000bb
:1033900005003a001fb29700afb297003fb3970005
:1033a000cfb39700460007006fb09700ffb09700bb
:1033b0000fb997009fb997004f06be004f05be009a
:1033c0004f04be000080fa0000000600881f78004d
:1033d00018002000881f7800b4ff07008f87e900dd
:1033e0004f04780000000600801feb00afff0700cd
:1033f0008f87e90000000600889fbe008a9fbe00fc
:103400003d00070007003d004000070018002000b5
:103410004500070008003d002b0007000004eb00fa
:10342000050037000004eb003f00070002003d00ec
:103430002500070018002000e4ff07000800e00056
:10344000010032003d0007004f05be004f04be00e2
:1034500000000600889fbe008a9fbe008c1f780077
:103460002500070008003d00280007001c00200080
:103470000820e10009a8e1000ab0e1000bb8e10072
:1034800007003d00050037000006eb00260007009e
:1034900003003d006044b8006055b8000c00070010
:1034a000d1ff07000c00e0000100320023000700fc
:1034b0004f0678004f05be004f04be000000060016
:1034c00008000700000006006044b8006055b8001e
:1034d0000402540085825c0006035d0087835d0062
:1034e00000000600a4b79f00b5b79f00c6b79f00b5
:1034f000d7b79f0000000600e00f5000e08f580093
:10350000e00f5900e08f5900000006006044b80049
:103510006055b8000000540081805c0002015d002d
:1035200083815d0000000600e00f5200e08f5a002a
:10353000e00f5b00e08f5b00000006006022b80037
:103540006033b8000000520081805a0002015b0025
:1035500083815b00000006000440e10005c8e10033
:1035600006d0e10007d8e100000006004f09de00a8
:1035700082817100b3b79f004f01de00818040005f
:1035800082807000a1b79f008fb097004f09de00c6
:10359000000040000200700090b79f007fa89700d5
:1035a0004f01de00818040008280700081b79f0063
:1035b0000d0007004f3ade000000400004007000dc
:1035c000f0af9f00080007000402420085824a0015
:1035d00006034b0087834b00c2ff07000802be00b2
:1035e0000a03be00000006002fb29700bfb297008a
:1035f0004fb39700dfb3970000000600889fbe001e
:103600008a9fbe0000827000040271000482710073
:10361000260032000004be000200be006011b800a7
:103620006b092000950220000182cf000a003900ba
:103630000541b1000082cf00070039000541b1000b
:103640000982cf00040039000541b1000882cf0093
:10365000010039000541b10005425200120032005c
:103660000a003b0082817100610164008100d10089
:103670000080d3008984d3000884d3008b05e80040
:103680000442e800f7ff3a0007003700080444004e
:1036900089844c0000004800818048008b05e900c7
:1036a0000442e900f9ff3a001b0007004f05be0085
:1036b0004f04be00000006000004be003c000700ee
:1036c0000003be000405be000200be003800070073
:1036d000844f7500000006000200be006450e10047
:1036e000050036006420e100020036000968a300ee
:1036f00001003a000800be000160a0004f067800fb
:103700004f05be004f04be0000000600f0ff2f0072
:10371000f1ff2700f9ff370081002000618055008c
:103720000b003d000b00200061fe2f000100e100b6
:103730001d00340082817100610164008904d100a0
:103740000884d3000000e800faff3a00710020006e
:103750006100640003007000020060000900320094
:1037600061044400e0844c000988a5000500320093
:103770008b05e8006808e10002003a008904d100e6
:103780000884d300f20f20000258e10005003d003c
:10379000c75ddd00f907b200898075000800780078
:1037a000000006000bf827008b00780000000500e1
:1037b000c70ade00f107b200f50fb20008003200c0
:1037c000e1cf4200020032000170a0002400050099
:1037d000810f70000100320004080500440005005c
:1037e000810f700002003a00140005008502e90014
:1037f0000000400081c04800fcff3b000170a000b9
:1038000024000500889fbe008a9fbe008c9fbe00da
:103810000404b8000506b8008904460060854e001f
:103820000606b8000a054600e0854e000706b80007
:103830008b054600040eb800890446000a854e0038
:10384000e0854d00050eb8000a0546008b854e0048
:10385000060eb8008b0546000416b8000a0546009f
:103860008b854e000516b8008b054600041eb80077
:103870008b0546000800be000a01be004f06be00d0
:103880004f05be004f04be00000006006dfd07009e
:103890000400be0000000600839f68000100e000f5
:1038a00002003d0060001000e08018000300e0000e
:1038b00002003d0060011100e081190061fd070078
:1038c0004f00e00002003b0060001000e0801800a4
:1038d00000000600421188000011880011118800c4
:0438e00000000600de
:020000040000fa
:1038e400637500006d7500006c6100007469000070
:1038f400766500005f6300006f7500006e74000061
:103904002025000064000000736300006f72000053
:103914006564000020250000640000006d61000063
:1039240078200000783a00002025000064000000a0
:103934006d6900006e200000783a00002025000028
:10394400640000006d61000078200000793a0000f6
:1039540020250000640000006d6900006e20000056
:10396400793a00002025000064000000256400006e
:10397400006900006e69000074690000616c000059
:10398400697a000061740000696f00006e20000015
:10399400646f00006e65000000470000616d000068
:1039a40065200000456e00006421000000590000fd
:1039b4006f75000072200000736300006f720000d6
:1039c40065200000697300003a20000025640000af
:1039d400005900006f750000206c00006f73000038
:1039e400742000003a2800000054000049450000fb
:1039f400005900006f750000207700006f6e000012
:083a0400203a00002900000037
:020000040000fa
:103a0c000800fa0020079800310798002e0090005b
:103a1c00100f78003e00900090007800110798007d
:103a2c001e0090009e007800808f50000200340031
:103a3c0010002000070037001e0090009e00780048
:103a4c00808f500002003d000080eb000100370029
:103a5c000000eb000080fa00000006002c00fa00c9
:103a6c00881f78000040eb00004f780008003700fa
:103a7c001e04fb00d30407008000780008004400fb
:103a8c00000047000080e800010878001e4fe800a5
:103a9c001e407800f44f5000f5ff34000e80e80013
:103aac0063d02100220020005101200048f60700bd
:103abc003e0890004f0478000080fa0000000600d9
:103acc000000fa00d01680004800de006140600063
:103adc008040780022c8bf0080cf50000b0032001d
:103aec00004080000000e80000408800004080009a
:103afc00e50f500006003a0022c8bf000004a200e7
:103b0c0022e8b7000028ef00010037000028ef0082
:103b1c000080fa00000006000000fa004119800045
:103b2c0000fe2f00008060000020a00040198800db
:103b3c002023a80000000000001980006100600034
:103b4c000000e000fcff32002003a90000188000f8
:103b5c000080fa00000006000000fa004119800005
:103b6c0000fe2f00008060005000b3004019880058
:103b7c002023a800000000000019800061006000f4
:103b8c000000e000fcff32002003a90000188000b8
:103b9c000080fa00000006000600fa00889fbe00b4
:103bac00000f780011079800220798002e00900053
:103bbc009e0f5000020031009e00780021079800f3
:103bcc00ae0090001e009000808f50000200360066
:103bdc009e009000210798001e0090001e005000cf
:103bec008000eb0043fc07000001be000000200039
:103bfc0061492400a0fc07000004be002e009000c8
:103c0c001e0050008000eb003afc07000001be00d3
:103c1c000800be0039fc07000200200013462400f7
:103c2c00d8fc070034fd0700000078004f04be00ec
:103c3c000080fa00000006000600fa00889fbe0013
:103c4c00000f780011079800220798001e009000c2
:103c5c001e0010008000eb0026fc07000004be00d4
:103c6c00ae0090001e009000008050008000eb0021
:103c7c0020fc07000001be0000002000e12f240002
:103c8c007dfc07000001be000800be001bfc070005
:103c9c0019fd0700000078004f04be000080fa00f8
:103cac00000006000600fa00889fbe00000f780096
:103cbc0011079800220798001e0090001e001000ab
:103ccc008000eb000bfc07000004be00ae0090006f
:103cdc001e009000008050008000eb0005fc0700e7
:103cec000001be0000002000c127240062fc070078
:103cfc000001be000800be0000fc07000001be0071
:103d0c0000002000c12724009dfc0700fafc0700de
:103d1c00000078004f04be000080fa00000006008e
:103d2c001800fa001000200060478800930107007b
:103d3c000040eb00bf01070000582200a30307005e
:103d4c0040062000d4010700aa0407001000200040
:103d5c007e040700c05d20009104070011e1a8005b
:103d6c001f0037006cff0700000f780080c1b30004
:103d7c00b00107000040eb008a01070090c1b300be
:103d8c00ac0107000040eb00860107009e1f780085
:103d9c0000c92900801f7800a0f50700e4875700b0
:103dac0040079800c0842000a4f507004e00900046
:103dbc008000eb006011b80004002b0015b7200048
:103dcc006033b800edfc0700843e200005002000a5
:103ddc006033b8007afd07000000be00a5f10700b3
:103dec0022c8bf000004e000deff3a000000000023
:103dfc0022c8bf000004e000fdff320020003700a5
:103e0c0045ff07001007980080c1b3008901070027
:103e1c000040eb006301070090c1b300850107006f
:103e2c0080c0b3005f0107009e009000811f7800e6
:103e3c00a0c92900801f780078f50700e487570097
:103e4c0050079800c08420007cf507005e009000ad
:103e5c008000eb006011b80004002b0015b72000a7
:103e6c006033b800c5fc0700843e2000050020002c
:103e7c006033b80052fd07000000be007df1070062
:103e8c0022c8bf000004e000ddff3a000000000083
:103e9c0022c8bf000004e000fdff32002000370004
:103eac002dff07002007980080c1b30061010700b7
:103ebc000040eb003b01070090c1b3005d0107001f
:103ecc0000c1b30037010700ae009000811f7800dd
:103edc0040ca2900801f780050f50700e48757007e
:103eec0060079800c084200054f507006e00900015
:103efc008000eb006011b80004002b0015b7200007
:103f0c006033b8009dfc0700843e200005002000b3
:103f1c006033b8002afd07000000be0055f1070011
:103f2c0022c8bf000004e000ddff3a0000000000e2
:103f3c0022c8bf000004e000fdff32002000370063
:103f4c0005ff07003007980080c1b3003901070056
:103f5c000040eb001301070090c1b30035010700ce
:103f6c0080c1b3000f010700be009000811f7800d4
:103f7c00e0ca2900801f780028f50700e487570065
:103f8c0070079800c08420002cf507007e0090007c
:103f9c008000eb006011b80004002b0015b7200066
:103fac006033b80075fc0700843e2000050020003b
:103fbc006033b80002fd07000000be002df10700c1
:103fcc0022c8bf000004e000ddff3a000000000042
:103fdc0022c8bf000004e000fdff320011e1a9007f
:103fec000040eb001301070070c0b3008003070012
:103ffc0080c0b3007e030700c15d200070c0b30019
:10400c00a5030700c15d200080c0b300a203070018
:10401c003403070000002a006118200015f1070086
:10402c0000af200040408800409c20005040880099
:10403c0080c1b300ff0007000040eb00d90007006f
:10404c0090c1b300fb0007000040eb00d500070057
:10405c0040408000801f780080cb2900801f7800b2
:10406c00eef40700e4875700c0842000f3f4070047
:10407c0080c1b300ef0007000040eb00c90007004f
:10408c0090c1b300eb00070080c0b300c50007006f
:10409c0050408000801f780080cb2900801f780062
:1040ac00def40700e4875700c0842000e3f4070027
:1040bc0000002500310c2000eef00700c017200096
:1040cc0060408800801120007040880080c1b300df
:1040dc00d80007000040eb00b200070090c1b3000d
:1040ec00d400070000c1b300ae00070060408000a0
:1040fc00801f780080cb2900801f7800c7f4070050
:10410c00e4875700c0842000ccf4070080c1b300c2
:10411c00c80007000040eb00a200070090c1b300ec
:10412c00c400070080c1b3009e00070070408000ef
:10413c00801f780080cb2900801f7800b7f407001f
:10414c00e4875700c0842000bcf4070080c1b30092
:10415c00b80007000040eb009200070090c1b300cc
:10416c00b400070000c2b3008e000700b0cb2900da
:10417c00801f7800a9f407008f87e900c084200015
:10418c00aef4070000002500310c2000b9f0070048
:10419c000040eb00a700070013e1a800f0408000ee
:1041ac00f50f500025003a0005e1a90013e1a90024
:1041bc000040eb009f00070080c1b3009d0007008a
:1041cc000040eb007700070090c1b3009900070096
:1041dc000040eb0073000700f0cc2900801f780032
:1041ec008ef407008f87e900c084200093f4070049
:1041fc00a04080009502070080c1b3008d0007002d
:10420c000040eb006700070090c1b3008900070075
:10421c0080c0b30063000700a0408000801f7800be
:10422c0090cd2900801f78007cf40700e4875700ac
:10423c00c084200081f407001500370036fe07000b
:10424c00000f98000e0990009e0078001e00900050
:10425c0051fe0700100f98009e08900080c0b3001c
:10426c000d0307003cfe0700200f98002e0990005c
:10427c00ae0090003e00900047fe0700300f980003
:10428c00be08900070c0b30003030700c3ff3700e3
:10429c00108220007f0207000000e000fcff3200cb
:1042ac0021c8bf008080fb00a0408000808f5000a0
:1042bc000f00340080c1b3005e0007000040eb002b
:1042cc003800070090c1b3005a00070000c1b300ca
:1042dc0034000700b0ce2900801f78004ff407008f
:1042ec008f87e900c084200054f4070022003700b7
:1042fc0021c8bf008080fb00a0408000808f500050
:10430c000f003a0080c1b3004a0007000040eb00e8
:10431c002400070090c1b3004600070000c1b300a1
:10432c002000070070cf2900801f78003bf40700a5
:10433c008f87e900c084200040f407000e0037008e
:10434c0080c1b3003b0007000040eb0015000700e4
:10435c0090c1b3003700070000c1b3001100070083
:10436c00b0cf2900801f78002cf407008f87e9005c
:10437c00c084200031f40700ffff37000000fa0072
:10438c006200200001402000000028004efd0700c4
:10439c0000802e003100200036f007000080fa006b
:1043ac00000006000200fa00004f78000100370000
:1043bc000000000023c2bf00624060000004e00067
:1043cc00fbff3a001e80fb00201188000100370023
:1043dc000000000023c2bf00614060000004e00048
:1043ec00fbff32000080fa00000006000600fa0015
:1043fc0010079800414798000040eb00004f7800f0
:10440c00070037001e80fb00800078001e00900023
:10441c000080400010407800e2ff07001e4fe800cb
:10442c004e4090009e4f1000f6ff39000080fa00bd
:10443c00000006000200fa00004f7800c0c7b3006d
:10444c00d8ff07001e407800d6ff07000080fa0056
:10445c00000006000000fa00c0c7b300d1ff07003f
:10446c000040eb00cfff07000080fa0000000600c0
:10447c000200fa00000f7800c0c7b300c9ff0700a4
:10448c0010c0b300c7ff07001e007800c5ff07006f
:10449c000080fa00000006000200fa00000f78000d
:1044ac00c0c7b300bfff070020c0b300bdff0700ab
:1044bc001e007800bbff07000080fa000000060019
:1044cc000800fa00000f78001107980022079800e6
:1044dc0033079800c0c7b300b2ff070030c0b30069
:1044ec00b0ff07001e007800aeff07001e00900012
:1044fc00acff07002e009000aaff07003e009000c2
:10450c00a8ff07000080fa00000006000000fa0077
:10451c00c0c7b300a3ff070040c0b300a1ff070052
:10452c000080fa00000006000800fa00000f780076
:10453c00110798002207980033079800c0c7b300f2
:10454c0098ff070050c0b30096ff07001e007800cc
:10455c0094ff07001e00900092ff07002e009000b1
:10456c0090ff07003e0090008eff07000080fa00cd
:10457c00000006000000fa00c0c7b30089ff070066
:10458c0060c0b30087ff07000080fa00000006003f
:10459c000200fa00000f78001e00e00002003c0050
:1045ac0010002000000f7800600020009e0f10000b
:1045bc000200340060002000000f7800c0c7b30078
:1045cc0078ff070070c0b30076ff07001e0078006c
:1045dc0074ff07000080fa00000006000000fa00db
:1045ec00c0c7b3006fff070080c0b3006dff0700aa
:1045fc000080fa00000006000200fa00000f7800ac
:10460c00c0c7b30067ff0700a0c0b30065ff070079
:10461c001e00780063ff07000080fa00000006000f
:10462c000800fa00000f7800110798002207980084
:10463c0033079800c0c7b3005aff0700b0c0b300df
:10464c0058ff07001e00780056ff07001e00900060
:10465c0054ff07002e00900052ff07003e00900010
:10466c0050ff07000080fa00000006000a00fa0064
:10467c00000f780011079800220798003307980064
:10468c0044079800c0c7b30046ff0700c0c0b30082
:10469c0044ff07001e00780042ff07001e00900038
:1046ac0040ff07002e0090003eff07003e009000e8
:1046bc003cff07004e0090003aff07000080fa0014
:1046cc00000006000a00fa00100798002107980065
:1046dc003207980043079800c0c7b30031ff0700aa
:1046ec00d0c0b3002fff07001e0090002dff070065
:1046fc002e0090002bff07003e00900029ff0700c2
:10470c000000eb00000f7800070037001e00780057
:10471c00800078004e00900000804000104078002f
:10472c0020ff07001e0fe800f00120009e0f100074
:10473c00f6ff34000080fa00000006000a00fa00c0
:10474c00000f780011079800220798003307980093
:10475c0044079800c0c7b30012ff0700f0c0b300b5
:10476c0010ff07001e0078000eff07001e009000cf
:10477c000cff07002e0090000aff07003e0090007f
:10478c0008ff07004e00900006ff07000080fa00ab
:10479c00000006000600fa00000f780011079800d0
:1047ac0022079800c0c7b300fefe070000c1b3008b
:1047bc00fcfe0700000820009e0f100003003400d0
:1047cc0000c8b300f7fe0700070037001e00e0002a
:1047dc0003003d000040eb00f2fe07000200370032
:1047ec001e007800effe07009e00900000042000e1
:1047fc00808f50000300340000c4b300e9fe0700b2
:10480c00080037001e0090000000e00003003d008f
:10481c000040eb00e3fe0700020037001e00900092
:10482c00e0fe07002e009000e10f50000600320061
:10483c002e0090000000e0000300320010c0b30016
:10484c00d8fe0700020037002e009000d5fe0700ae
:10485c000080fa00000006000a00fa00000f780041
:10486c00110798002207980033079800044f98000e
:10487c00c0c7b300cbfe070020c1b300c9fe0700c0
:10488c001e007800c7fe07001e009000c5fe070042
:10489c002e009000c3fe07003e009000c1fe0700f2
:1048ac000e489000bffe07000080fa0000000600d2
:1048bc000000fa00c0c7b300bafe070040c1b30045
:1048cc00b8fe07000080fa00000006000000fa00a5
:1048dc00c0c7b300b3fe070050c1b300b1fe070060
:1048ec000080fa00000006000e00fa001007980085
:1048fc002107980032079800430798005407980046
:10490c0065079800c0c7b300a6fe070060c1b300de
:10491c00a4fe07001e009000a2fe07002e009000cf
:10492c00a0fe07003e0090009efe07004e00900087
:10493c009cfe07005e0090009afe0700ce009000df
:10494c005e0090000088b900820020001100090070
:10495c000200d800000f78000000eb001007980050
:10496c00090037001e009000800078006e00900057
:10497c0000804000104078008afe07001e00900066
:10498c000000e800100798001e0090009e0f5000d9
:10499c00f4ff35000080fa00000006000400fa0065
:1049ac00000f780011079800c0c7b3007dfe070008
:1049bc0080c1b3007bfe07001e00780079fe070063
:1049cc00c0c7b30077fe070090c1b30075fe0700a7
:1049dc001e00900073fe07000080fa000000060025
:1049ec000400fa00100798001e009000e80f500019
:1049fc000300340080002000100798000c003700e2
:104a0c001e0090000000e00003003c00100020009d
:104a1c0010079800060037001e0090004300dd00d0
:104a2c00680f50009e00780010002000dbff07008c
:084a3c000080fa0000000600f2
:020000040000fa
:104a44002208000002000000020000000100000033
:104a5400000800002200000000000000ec08000034
:104a64000200000002000000010000002408000011
:104a7400880000000200000001000000004a080055
:104a84004b084a00084a08004a084a00083a080045
:104a94000000000000000000000000000000000012
:104aa40000000000000000000000000000020800f8
:104ab400010172000873080072087200087208008d
:104ac40072086200080000000000000000000000fe
:104ad40000000000000000000000000000000000d2
:104ae40000000200080202009a089b00089a0800cd
:104af4009a089a00089a08008a080000000000003a
:104b040000000000000000000000000000000000a1
:104b1400000000000000000024084c000874080095
:104b24000000000000000000000000000000000081
:104b3400ce0800001a00000002000000686a6c0041
:104b4400747a4c0000000100000200000400080018
:104b540000100000000020002b2d23003000000076
:104b6400ee08000002000000020000000400000043
:104b7400e80800000400000000000000f008000045
:104b84000200000000000000ac0800002200000049
:104b9400020000003031320033343500363738003b
:104ba400394142004344450046003000313233006d
:104bb4003435360037383900616263006465660055
:104bc40000000000f20800000200000000000000e5
:044bd40000000000dd
:020000040000fa
:104bd8000200fa00000f780031e2a90097c0a9008e
:104be80097e0a90087c0a90087e0a900de62a800b5
:104bf800de42a9003062a9001e0078008000eb00a8
:104c08000001be0000502300c10020008bf80700ff
:104c1800000078000000e900c01188003022ef0091
:104c28003162a90081118000f0cf2f000080600060
:104c380080118800801180008011880031e2a8006e
:104c48003222ef003342a8000080fa00000006007c
:104c58000200fa00004f7800000000009111800067
:104c680000202000008060000000e000fbff3a0008
:104c78001e80fb00a0118800000000009111800038
:104c880000102000008060000000e000fbff320000
:104c98000080fa00000006000200fa00000f780009
:104ca80090118000620060000000e0000100320006
:104cb8003222a90090118000610060000000e0002d
:104cc80006003200b0118000804078001e00780095
:104cd8000148780010c0b300010037000040eb0025
:104ce8000080fa00000006000000fa00d822a9009f
:104cf800d842a900d862a900dc22a800dc42a8009a
:104d0800dc62a90061e3a900c722a800c7e2a800e5
:104d18006d23a9006de3a9006143a800011b800071
:104d2800f0cf2f0000806000001b8800011b80006e
:104d3800000e200001007000001b88006223ef00b5
:104d480061e3a8000080fa00000006000200fa00f3
:104d5800004f78001e4078000004e000090032008f
:104d6800dc22a800dc42a900dc62a900411b80000b
:104d780000ff2f00008060009000b300401b8800f7
:104d880006003700dc22a900dc42a800dc62a8008b
:104d9800401b8000f000b300401b88000080fa0030
:104da800000006000200fa00004f78001e4078005c
:104db800e6ff070000e02e0021002000aeed07000e
:104dc8000080fa00000006000000fa006023a80036
:104dd80000000000001b8000610060000000e0008f
:104de800fcff32006003a900001a80000080fa006e
:104df800000006000200fa00004f780011e1a90047
:104e08001021a90010c1a9000621ef008108800027
:104e1800f0fc2f00008060000050a000800888008f
:104e280094e0a90084e0a90000fa20006008880046
:104e38001e407800e84f50000b003a00d2e2a9006b
:104e480040e72000600d8800c0df2000500d88007a
:104e5800710d800080ff2f00008060006000b300ab
:104e6800700d88000a003700d2c2a90040e7200070
:104e7800300d8800c0df2000200d8800410d800023
:104e880080ff2f00008060006000b300400d8800a4
:104e980011e1a8000080fa00000006000800fa00ee
:104ea800404798003107980001e224003e00900036
:104eb800008050008000eb008ff70700d2cc2c0058
:104ec800c3e423008ef70700c1f70700008fbe0078
:104ed8004e409000e84f500003003a001e00780052
:104ee800500d8800020037001e007800200d880051
:104ef8000080fa00000006000400fa00008fbe00df
:104f080005e1a9000421a90004c1a9000441a800e1
:104f18000021ef002108800000032000010070003c
:104f2800200888001e0078001008880021058000ed
:104f3800f0ff28000080600000c0a0002005880065
:104f48008460a9009460a8000080fa0000000600b0
:104f58000400fa00008fbe0011e1a9001021a90089
:104f680010c1a9000621ef0081088000000320007d
:104f780001007000800888001e0078006008880022
:104f880031058000f0ff28000080600000c0a0000c
:104f98003005880084e0a90094e0a8000080fa00a9
:104fa800000006000200fa00000f780013e1a900d3
:104fb8001221a90012c1a9000a21ef00910880005e
:104fc8000003200001007000900888009e0078000f
:104fd800710888004105800080ff2f000080600074
:104fe8000010a000400588008500a9009500a800d1
:104ff8000080fa00000006000000fa0021e3a90082
:10500800d902a8002a83a800c682a800c6a2a800c0
:105018002c83a9002ca3a9002143a8000119800012
:10502800f0cf2f000080600000198800011980006f
:10503800000e2000010070000019880021e3a8007c
:085048000080fa0000000600e0
:020000040000fa
:0200000401f009
:04000800ffff0000f6
:020000040000fa
:0200000401f009
:04000c00a30000004d
:020000040000fa
:0200000401f009
:04001000c500000027
:020000040000fa
:0200000401f009
:040014005f00000089
:00000001FF
